{
  "contractName": "Payment",
  "abi": [
    {
      "constant": true,
      "inputs": [
        {
          "name": "",
          "type": "uint256"
        }
      ],
      "name": "employees",
      "outputs": [
        {
          "name": "id",
          "type": "uint256"
        },
        {
          "name": "name",
          "type": "string"
        },
        {
          "name": "wallet",
          "type": "address"
        }
      ],
      "payable": false,
      "stateMutability": "view",
      "type": "function"
    },
    {
      "constant": true,
      "inputs": [],
      "name": "employeee",
      "outputs": [
        {
          "name": "",
          "type": "string"
        }
      ],
      "payable": false,
      "stateMutability": "view",
      "type": "function"
    },
    {
      "constant": true,
      "inputs": [],
      "name": "employeeCount",
      "outputs": [
        {
          "name": "",
          "type": "uint256"
        }
      ],
      "payable": false,
      "stateMutability": "view",
      "type": "function"
    },
    {
      "inputs": [],
      "payable": false,
      "stateMutability": "nonpayable",
      "type": "constructor"
    },
    {
      "constant": false,
      "inputs": [
        {
          "name": "clockIn",
          "type": "uint256"
        },
        {
          "name": "clockOut",
          "type": "uint256"
        },
        {
          "name": "_amount",
          "type": "uint256"
        },
        {
          "name": "payee",
          "type": "address"
        }
      ],
      "name": "hoursWorked",
      "outputs": [],
      "payable": true,
      "stateMutability": "payable",
      "type": "function"
    },
    {
      "constant": false,
      "inputs": [
        {
          "name": "_name",
          "type": "string"
        },
        {
          "name": "_address",
          "type": "address"
        }
      ],
      "name": "addNewEmployee",
      "outputs": [],
      "payable": false,
      "stateMutability": "nonpayable",
      "type": "function"
    }
  ],
  "bytecode": "0x608060405234801561001057600080fd5b5061006a6040518060400160405280600c81526020017f5061756c204772696666696e00000000000000000000000000000000000000008152507313ef0cfe283d21b140e8bed83add6e8b886a28a561011460201b60201c565b6100c36040518060400160405280600e81526020017f426172726f73205261706861656c000000000000000000000000000000000000815250736ca1779c7466a7249cc14306315385858a47d6d661011460201b60201c565b6040518060400160405280600a81526020017f594f5520444944204954000000000000000000000000000000000000000000008152506000908051906020019061010e9291906101e3565b50610308565b600260008154809291906001019190505550604051806060016040528060025481526020018381526020018273ffffffffffffffffffffffffffffffffffffffff16815250600160006002548152602001908152602001600020600082015181600001556020820151816001019080519060200190610194929190610263565b5060408201518160020160006101000a81548173ffffffffffffffffffffffffffffffffffffffff021916908373ffffffffffffffffffffffffffffffffffffffff1602179055509050505050565b828054600181600116156101000203166002900490600052602060002090601f016020900481019282601f1061022457805160ff1916838001178555610252565b82800160010185558215610252579182015b82811115610251578251825591602001919060010190610236565b5b50905061025f91906102e3565b5090565b828054600181600116156101000203166002900490600052602060002090601f016020900481019282601f106102a457805160ff19168380011785556102d2565b828001600101855582156102d2579182015b828111156102d15782518255916020019190600101906102b6565b5b5090506102df91906102e3565b5090565b61030591905b808211156103015760008160009055506001016102e9565b5090565b90565b6106c5806103176000396000f3fe60806040526004361061004a5760003560e01c80634739326b1461004f5780635f1c11a81461013d578063819e2d93146101cd5780639047bf581461022f578063bebfc8801461025a575b600080fd5b34801561005b57600080fd5b506100886004803603602081101561007257600080fd5b8101908080359060200190929190505050610342565b60405180848152602001806020018373ffffffffffffffffffffffffffffffffffffffff1673ffffffffffffffffffffffffffffffffffffffff168152602001828103825284818151815260200191508051906020019080838360005b838110156101005780820151818401526020810190506100e5565b50505050905090810190601f16801561012d5780820380516001836020036101000a031916815260200191505b5094505050505060405180910390f35b34801561014957600080fd5b50610152610424565b6040518080602001828103825283818151815260200191508051906020019080838360005b83811015610192578082015181840152602081019050610177565b50505050905090810190601f1680156101bf5780820380516001836020036101000a031916815260200191505b509250505060405180910390f35b61022d600480360360808110156101e357600080fd5b81019080803590602001909291908035906020019092919080359060200190929190803573ffffffffffffffffffffffffffffffffffffffff1690602001909291905050506104c2565b005b34801561023b57600080fd5b5061024461051f565b6040518082815260200191505060405180910390f35b34801561026657600080fd5b506103406004803603604081101561027d57600080fd5b810190808035906020019064010000000081111561029a57600080fd5b8201836020820111156102ac57600080fd5b803590602001918460018302840111640100000000831117156102ce57600080fd5b91908080601f016020809104026020016040519081016040528093929190818152602001838380828437600081840152601f19601f820116905080830192505050505050509192919290803573ffffffffffffffffffffffffffffffffffffffff169060200190929190505050610525565b005b6001602052806000526040600020600091509050806000015490806001018054600181600116156101000203166002900480601f0160208091040260200160405190810160405280929190818152602001828054600181600116156101000203166002900480156103f45780601f106103c9576101008083540402835291602001916103f4565b820191906000526020600020905b8154815290600101906020018083116103d757829003601f168201915b5050505050908060020160009054906101000a900473ffffffffffffffffffffffffffffffffffffffff16905083565b60008054600181600116156101000203166002900480601f0160208091040260200160405190810160405280929190818152602001828054600181600116156101000203166002900480156104ba5780601f1061048f576101008083540402835291602001916104ba565b820191906000526020600020905b81548152906001019060200180831161049d57829003601f168201915b505050505081565b60008484039050600083820290508273ffffffffffffffffffffffffffffffffffffffff166108fc829081150290604051600060405180830381858888f19350505050158015610516573d6000803e3d6000fd5b50505050505050565b60025481565b600260008154809291906001019190505550604051806060016040528060025481526020018381526020018273ffffffffffffffffffffffffffffffffffffffff168152506001600060025481526020019081526020016000206000820151816000015560208201518160010190805190602001906105a59291906105f4565b5060408201518160020160006101000a81548173ffffffffffffffffffffffffffffffffffffffff021916908373ffffffffffffffffffffffffffffffffffffffff1602179055509050505050565b828054600181600116156101000203166002900490600052602060002090601f016020900481019282601f1061063557805160ff1916838001178555610663565b82800160010185558215610663579182015b82811115610662578251825591602001919060010190610647565b5b5090506106709190610674565b5090565b61069691905b8082111561069257600081600090555060010161067a565b5090565b9056fea165627a7a72305820a03b19163e0a3c1abc5044787dbcc360d8118c01a0c4373569cb1fe388e4765c0029",
  "source": "pragma solidity ^0.5.8;\r\n\r\n/*This contract is for employee to clock out and receive their pay every day*/\r\ncontract Payment {\r\n    string public employeee;\r\n    /*Creating a New Employee Object*/\r\n    struct Employee{\r\n        uint id;\r\n        string name;\r\n        address wallet;\r\n    }\r\n\r\n    /*When this contract is deployed the Employee is created*/\r\n    constructor() public{\r\n        addNewEmployee(\"Paul Griffin\", 0x13Ef0CFe283D21b140e8Bed83aDD6e8B886a28a5);\r\n        addNewEmployee(\"Barros Raphael\", 0x6ca1779C7466A7249cc14306315385858A47D6d6);\r\n        employeee = \"YOU DID IT\"; /*app.employeee() <- call this*/\r\n    }\r\n\r\n    /*Map the Employee id to the Employee Object, this is a function - to get a particular employee app.employee(id)*/\r\n    mapping(uint => Employee) public employees;\r\n\r\n    /*Keeping track of # of Employee*/\r\n    uint public employeeCount;\r\n\r\n    function hoursWorked(uint clockIn, uint clockOut, uint _amount, address payable payee)public payable {\r\n        uint hoursCalculated = clockOut - clockIn;\r\n        uint amount_payable = hoursCalculated * _amount;\r\n        payee.transfer(amount_payable);\r\n    }\r\n\r\n    /*Create new Employee privately if we need*/\r\n    function addNewEmployee(string memory _name, address _address) public {\r\n        employeeCount ++;\r\n        employees[employeeCount] = Employee(employeeCount, _name, _address);\r\n    }\r\n}",
  "sourcePath": "E:/griffin/sc/contracts/Payment-lou.sol",
  "compiler": {
    "name": "solc",
    "version": "0.5.8+commit.23d335f2.Emscripten.clang"
  },
  "schemaVersion": "3.0.16",
  "updatedAt": "2019-10-29T08:26:14.839Z",
  "devdoc": {
    "methods": {}
  },
  "userdoc": {
    "methods": {}
  }
}